{
  "contractName": "ERC1155",
  "abi": [
    {
      "constant": true,
      "inputs": [],
      "name": "ERC1155_RECEIVED",
      "outputs": [
        {
          "name": "",
          "type": "bytes4"
        }
      ],
      "payable": false,
      "stateMutability": "view",
      "type": "function"
    },
    {
      "constant": true,
      "inputs": [],
      "name": "ERC1155_BATCH_RECEIVED",
      "outputs": [
        {
          "name": "",
          "type": "bytes4"
        }
      ],
      "payable": false,
      "stateMutability": "view",
      "type": "function"
    },
    {
      "anonymous": false,
      "inputs": [
        {
          "indexed": true,
          "name": "_operator",
          "type": "address"
        },
        {
          "indexed": true,
          "name": "_from",
          "type": "address"
        },
        {
          "indexed": true,
          "name": "_to",
          "type": "address"
        },
        {
          "indexed": false,
          "name": "_id",
          "type": "uint256"
        },
        {
          "indexed": false,
          "name": "_value",
          "type": "uint256"
        }
      ],
      "name": "TransferSingle",
      "type": "event"
    },
    {
      "anonymous": false,
      "inputs": [
        {
          "indexed": true,
          "name": "_operator",
          "type": "address"
        },
        {
          "indexed": true,
          "name": "_from",
          "type": "address"
        },
        {
          "indexed": true,
          "name": "_to",
          "type": "address"
        },
        {
          "indexed": false,
          "name": "_ids",
          "type": "uint256[]"
        },
        {
          "indexed": false,
          "name": "_values",
          "type": "uint256[]"
        }
      ],
      "name": "TransferBatch",
      "type": "event"
    },
    {
      "anonymous": false,
      "inputs": [
        {
          "indexed": true,
          "name": "_owner",
          "type": "address"
        },
        {
          "indexed": true,
          "name": "_operator",
          "type": "address"
        },
        {
          "indexed": false,
          "name": "_approved",
          "type": "bool"
        }
      ],
      "name": "ApprovalForAll",
      "type": "event"
    },
    {
      "anonymous": false,
      "inputs": [
        {
          "indexed": false,
          "name": "_value",
          "type": "string"
        },
        {
          "indexed": true,
          "name": "_id",
          "type": "uint256"
        }
      ],
      "name": "URI",
      "type": "event"
    },
    {
      "constant": true,
      "inputs": [
        {
          "name": "_interfaceId",
          "type": "bytes4"
        }
      ],
      "name": "supportsInterface",
      "outputs": [
        {
          "name": "",
          "type": "bool"
        }
      ],
      "payable": false,
      "stateMutability": "view",
      "type": "function"
    },
    {
      "constant": false,
      "inputs": [
        {
          "name": "_from",
          "type": "address"
        },
        {
          "name": "_to",
          "type": "address"
        },
        {
          "name": "_id",
          "type": "uint256"
        },
        {
          "name": "_value",
          "type": "uint256"
        },
        {
          "name": "_data",
          "type": "bytes"
        }
      ],
      "name": "safeTransferFrom",
      "outputs": [],
      "payable": false,
      "stateMutability": "nonpayable",
      "type": "function"
    },
    {
      "constant": false,
      "inputs": [
        {
          "name": "_from",
          "type": "address"
        },
        {
          "name": "_to",
          "type": "address"
        },
        {
          "name": "_ids",
          "type": "uint256[]"
        },
        {
          "name": "_values",
          "type": "uint256[]"
        },
        {
          "name": "_data",
          "type": "bytes"
        }
      ],
      "name": "safeBatchTransferFrom",
      "outputs": [],
      "payable": false,
      "stateMutability": "nonpayable",
      "type": "function"
    },
    {
      "constant": true,
      "inputs": [
        {
          "name": "_owner",
          "type": "address"
        },
        {
          "name": "_id",
          "type": "uint256"
        }
      ],
      "name": "balanceOf",
      "outputs": [
        {
          "name": "",
          "type": "uint256"
        }
      ],
      "payable": false,
      "stateMutability": "view",
      "type": "function"
    },
    {
      "constant": true,
      "inputs": [
        {
          "name": "_owners",
          "type": "address[]"
        },
        {
          "name": "_ids",
          "type": "uint256[]"
        }
      ],
      "name": "balanceOfBatch",
      "outputs": [
        {
          "name": "",
          "type": "uint256[]"
        }
      ],
      "payable": false,
      "stateMutability": "view",
      "type": "function"
    },
    {
      "constant": false,
      "inputs": [
        {
          "name": "_operator",
          "type": "address"
        },
        {
          "name": "_approved",
          "type": "bool"
        }
      ],
      "name": "setApprovalForAll",
      "outputs": [],
      "payable": false,
      "stateMutability": "nonpayable",
      "type": "function"
    },
    {
      "constant": true,
      "inputs": [
        {
          "name": "_owner",
          "type": "address"
        },
        {
          "name": "_operator",
          "type": "address"
        }
      ],
      "name": "isApprovedForAll",
      "outputs": [
        {
          "name": "",
          "type": "bool"
        }
      ],
      "payable": false,
      "stateMutability": "view",
      "type": "function"
    }
  ],
  "bytecode": "0x608060405234801561001057600080fd5b50611a1a806100206000396000f3fe608060405260043610610098576000357c0100000000000000000000000000000000000000000000000000000000900463ffffffff168062fdd58e1461009d57806301ffc9a71461010c5780632eb2c2d61461017e5780634e1273f4146102ee578063a22cb4651461041e578063e0a5c9491461047b578063e985e9c5146104e4578063f242432a1461056d578063fc67bf1c14610647575b600080fd5b3480156100a957600080fd5b506100f6600480360360408110156100c057600080fd5b81019080803573ffffffffffffffffffffffffffffffffffffffff169060200190929190803590602001909291905050506106b0565b6040518082815260200191505060405180910390f35b34801561011857600080fd5b506101646004803603602081101561012f57600080fd5b8101908080357bffffffffffffffffffffffffffffffffffffffffffffffffffffffff1916906020019092919050505061070a565b604051808215151515815260200191505060405180910390f35b34801561018a57600080fd5b506102ec600480360360a08110156101a157600080fd5b81019080803573ffffffffffffffffffffffffffffffffffffffff169060200190929190803573ffffffffffffffffffffffffffffffffffffffff169060200190929190803590602001906401000000008111156101fe57600080fd5b82018360208201111561021057600080fd5b8035906020019184602083028401116401000000008311171561023257600080fd5b90919293919293908035906020019064010000000081111561025357600080fd5b82018360208201111561026557600080fd5b8035906020019184602083028401116401000000008311171561028757600080fd5b9091929391929390803590602001906401000000008111156102a857600080fd5b8201836020820111156102ba57600080fd5b803590602001918460018302840111640100000000831117156102dc57600080fd5b90919293919293905050506107f3565b005b3480156102fa57600080fd5b506103c76004803603604081101561031157600080fd5b810190808035906020019064010000000081111561032e57600080fd5b82018360208201111561034057600080fd5b8035906020019184602083028401116401000000008311171561036257600080fd5b90919293919293908035906020019064010000000081111561038357600080fd5b82018360208201111561039557600080fd5b803590602001918460208302840111640100000000831117156103b757600080fd5b9091929391929390505050611037565b6040518080602001828103825283818151815260200191508051906020019060200280838360005b8381101561040a5780820151818401526020810190506103ef565b505050509050019250505060405180910390f35b34801561042a57600080fd5b506104796004803603604081101561044157600080fd5b81019080803573ffffffffffffffffffffffffffffffffffffffff169060200190929190803515159060200190929190505050611157565b005b34801561048757600080fd5b50610490611258565b60405180827bffffffffffffffffffffffffffffffffffffffffffffffffffffffff19167bffffffffffffffffffffffffffffffffffffffffffffffffffffffff1916815260200191505060405180910390f35b3480156104f057600080fd5b506105536004803603604081101561050757600080fd5b81019080803573ffffffffffffffffffffffffffffffffffffffff169060200190929190803573ffffffffffffffffffffffffffffffffffffffff16906020019092919050505061127f565b604051808215151515815260200191505060405180910390f35b34801561057957600080fd5b50610645600480360360a081101561059057600080fd5b81019080803573ffffffffffffffffffffffffffffffffffffffff169060200190929190803573ffffffffffffffffffffffffffffffffffffffff16906020019092919080359060200190929190803590602001909291908035906020019064010000000081111561060157600080fd5b82018360208201111561061357600080fd5b8035906020019184600183028401116401000000008311171561063557600080fd5b9091929391929390505050611313565b005b34801561065357600080fd5b5061065c61197f565b60405180827bffffffffffffffffffffffffffffffffffffffffffffffffffffffff19167bffffffffffffffffffffffffffffffffffffffffffffffffffffffff1916815260200191505060405180910390f35b600080600083815260200190815260200160002060008473ffffffffffffffffffffffffffffffffffffffff1673ffffffffffffffffffffffffffffffffffffffff16815260200190815260200160002054905092915050565b60006301ffc9a77c0100000000000000000000000000000000000000000000000000000000027bffffffffffffffffffffffffffffffffffffffffffffffffffffffff1916827bffffffffffffffffffffffffffffffffffffffffffffffffffffffff191614806107db575063d9b67a267c0100000000000000000000000000000000000000000000000000000000027bffffffffffffffffffffffffffffffffffffffffffffffffffffffff1916827bffffffffffffffffffffffffffffffffffffffffffffffffffffffff1916145b156107e957600190506107ee565b600090505b919050565b600073ffffffffffffffffffffffffffffffffffffffff168773ffffffffffffffffffffffffffffffffffffffff16141515156108be576040517f08c379a00000000000000000000000000000000000000000000000000000000081526004018080602001828103825260258152602001807f64657374696e6174696f6e2061646472657373206d757374206265206e6f6e2d81526020017f7a65726f2e00000000000000000000000000000000000000000000000000000081525060400191505060405180910390fd5b8383905086869050141515610961576040517f08c379a00000000000000000000000000000000000000000000000000000000081526004018080602001828103825260298152602001807f5f69647320616e64205f76616c756573206172726179206c656e676874206d7581526020017f7374206d617463682e000000000000000000000000000000000000000000000081525060400191505060405180910390fd5b3373ffffffffffffffffffffffffffffffffffffffff168873ffffffffffffffffffffffffffffffffffffffff161480610a28575060011515600160008a73ffffffffffffffffffffffffffffffffffffffff1673ffffffffffffffffffffffffffffffffffffffff16815260200190815260200160002060003373ffffffffffffffffffffffffffffffffffffffff1673ffffffffffffffffffffffffffffffffffffffff16815260200190815260200160002060009054906101000a900460ff161515145b1515610ac2576040517f08c379a000000000000000000000000000000000000000000000000000000000815260040180806020018281038252602f8152602001807f4e656564206f70657261746f7220617070726f76616c20666f7220337264207081526020017f61727479207472616e73666572732e000000000000000000000000000000000081525060400191505060405180910390fd5b60008090505b86869050811015610c7c5760008787838181101515610ae357fe5b90506020020135905060008686848181101515610afc57fe5b905060200201359050610b678160008085815260200190815260200160002060008e73ffffffffffffffffffffffffffffffffffffffff1673ffffffffffffffffffffffffffffffffffffffff168152602001908152602001600020546119a690919063ffffffff16565b60008084815260200190815260200160002060008d73ffffffffffffffffffffffffffffffffffffffff1673ffffffffffffffffffffffffffffffffffffffff16815260200190815260200160002081905550610c1c60008084815260200190815260200160002060008c73ffffffffffffffffffffffffffffffffffffffff1673ffffffffffffffffffffffffffffffffffffffff16815260200190815260200160002054826119bf90919063ffffffff16565b60008084815260200190815260200160002060008c73ffffffffffffffffffffffffffffffffffffffff1673ffffffffffffffffffffffffffffffffffffffff168152602001908152602001600020819055505050806001019050610ac8565b508673ffffffffffffffffffffffffffffffffffffffff168873ffffffffffffffffffffffffffffffffffffffff163373ffffffffffffffffffffffffffffffffffffffff167f4a39dc06d4c0dbc64b70af90fd698a233a518aa5d07e595d983b8c0526c8f7fb898989896040518080602001806020018381038352878782818152602001925060200280828437600081840152601f19601f8201169050808301925050508381038252858582818152602001925060200280828437600081840152601f19601f820116905080830192505050965050505050505060405180910390a4610d7e8773ffffffffffffffffffffffffffffffffffffffff166119db565b1561102d5763bc197c817c0100000000000000000000000000000000000000000000000000000000027bffffffffffffffffffffffffffffffffffffffffffffffffffffffff19168773ffffffffffffffffffffffffffffffffffffffff1663bc197c81338b8a8a8a8a8a8a6040518963ffffffff167c0100000000000000000000000000000000000000000000000000000000028152600401808973ffffffffffffffffffffffffffffffffffffffff1673ffffffffffffffffffffffffffffffffffffffff1681526020018873ffffffffffffffffffffffffffffffffffffffff1673ffffffffffffffffffffffffffffffffffffffff16815260200180602001806020018060200184810384528a8a82818152602001925060200280828437600081840152601f19601f8201169050808301925050508481038352888882818152602001925060200280828437600081840152601f19601f8201169050808301925050508481038252868682818152602001925080828437600081840152601f19601f8201169050808301925050509b505050505050505050505050602060405180830381600087803b158015610f3757600080fd5b505af1158015610f4b573d6000803e3d6000fd5b505050506040513d6020811015610f6157600080fd5b81019080805190602001909291905050507bffffffffffffffffffffffffffffffffffffffffffffffffffffffff191614151561102c576040517f08c379a000000000000000000000000000000000000000000000000000000000815260040180806020018281038252602e8152602001807f526563656976657220636f6e747261637420646964206e6f742061636365707481526020017f20746865207472616e736665722e00000000000000000000000000000000000081525060400191505060405180910390fd5b5b5050505050505050565b6060828290508585905014151561104d57600080fd5b6060858590506040519080825280602002602001820160405280156110815781602001602082028038833980820191505090505b50905060008090505b8686905081101561114a5760008086868481811015156110a657fe5b905060200201358152602001908152602001600020600088888481811015156110cb57fe5b9050602002013573ffffffffffffffffffffffffffffffffffffffff1673ffffffffffffffffffffffffffffffffffffffff1673ffffffffffffffffffffffffffffffffffffffff16815260200190815260200160002054828281518110151561113157fe5b906020019060200201818152505080600101905061108a565b5080915050949350505050565b80600160003373ffffffffffffffffffffffffffffffffffffffff1673ffffffffffffffffffffffffffffffffffffffff16815260200190815260200160002060008473ffffffffffffffffffffffffffffffffffffffff1673ffffffffffffffffffffffffffffffffffffffff16815260200190815260200160002060006101000a81548160ff0219169083151502179055508173ffffffffffffffffffffffffffffffffffffffff163373ffffffffffffffffffffffffffffffffffffffff167f17307eab39ab6107e8899845ad3d59bd9653f200f220920489ca2b5937696c3183604051808215151515815260200191505060405180910390a35050565b63f23a6e617c01000000000000000000000000000000000000000000000000000000000281565b6000600160008473ffffffffffffffffffffffffffffffffffffffff1673ffffffffffffffffffffffffffffffffffffffff16815260200190815260200160002060008373ffffffffffffffffffffffffffffffffffffffff1673ffffffffffffffffffffffffffffffffffffffff16815260200190815260200160002060009054906101000a900460ff16905092915050565b600073ffffffffffffffffffffffffffffffffffffffff168573ffffffffffffffffffffffffffffffffffffffff16141515156113b8576040517f08c379a00000000000000000000000000000000000000000000000000000000081526004018080602001828103825260158152602001807f5f746f206d757374206265206e6f6e2d7a65726f2e000000000000000000000081525060200191505060405180910390fd5b3373ffffffffffffffffffffffffffffffffffffffff168673ffffffffffffffffffffffffffffffffffffffff16148061147f575060011515600160008873ffffffffffffffffffffffffffffffffffffffff1673ffffffffffffffffffffffffffffffffffffffff16815260200190815260200160002060003373ffffffffffffffffffffffffffffffffffffffff1673ffffffffffffffffffffffffffffffffffffffff16815260200190815260200160002060009054906101000a900460ff161515145b1515611519576040517f08c379a000000000000000000000000000000000000000000000000000000000815260040180806020018281038252602f8152602001807f4e656564206f70657261746f7220617070726f76616c20666f7220337264207081526020017f61727479207472616e73666572732e000000000000000000000000000000000081525060400191505060405180910390fd5b61157b8360008087815260200190815260200160002060008973ffffffffffffffffffffffffffffffffffffffff1673ffffffffffffffffffffffffffffffffffffffff168152602001908152602001600020546119a690919063ffffffff16565b60008086815260200190815260200160002060008873ffffffffffffffffffffffffffffffffffffffff1673ffffffffffffffffffffffffffffffffffffffff1681526020019081526020016000208190555061163060008086815260200190815260200160002060008773ffffffffffffffffffffffffffffffffffffffff1673ffffffffffffffffffffffffffffffffffffffff16815260200190815260200160002054846119bf90919063ffffffff16565b60008086815260200190815260200160002060008773ffffffffffffffffffffffffffffffffffffffff1673ffffffffffffffffffffffffffffffffffffffff168152602001908152602001600020819055508473ffffffffffffffffffffffffffffffffffffffff168673ffffffffffffffffffffffffffffffffffffffff163373ffffffffffffffffffffffffffffffffffffffff167fc3d58168c5ae7397731d063d5bbf3d657854427343f4c083240f7aacaa2d0f628787604051808381526020018281526020019250505060405180910390a46117268573ffffffffffffffffffffffffffffffffffffffff166119db565b156119775763f23a6e617c0100000000000000000000000000000000000000000000000000000000027bffffffffffffffffffffffffffffffffffffffffffffffffffffffff19168573ffffffffffffffffffffffffffffffffffffffff1663f23a6e613389888888886040518763ffffffff167c0100000000000000000000000000000000000000000000000000000000028152600401808773ffffffffffffffffffffffffffffffffffffffff1673ffffffffffffffffffffffffffffffffffffffff1681526020018673ffffffffffffffffffffffffffffffffffffffff1673ffffffffffffffffffffffffffffffffffffffff168152602001858152602001848152602001806020018281038252848482818152602001925080828437600081840152601f19601f820116905080830192505050975050505050505050602060405180830381600087803b15801561188157600080fd5b505af1158015611895573d6000803e3d6000fd5b505050506040513d60208110156118ab57600080fd5b81019080805190602001909291905050507bffffffffffffffffffffffffffffffffffffffffffffffffffffffff1916141515611976576040517f08c379a000000000000000000000000000000000000000000000000000000000815260040180806020018281038252602e8152602001807f526563656976657220636f6e747261637420646964206e6f742061636365707481526020017f20746865207472616e736665722e00000000000000000000000000000000000081525060400191505060405180910390fd5b5b505050505050565b63bc197c817c01000000000000000000000000000000000000000000000000000000000281565b60008282111515156119b457fe5b818303905092915050565b600081830190508281101515156119d257fe5b80905092915050565b600080823b90506000811191505091905056fea165627a7a7230582005acb128b522bba17946b20d59ad3ac11a931c5bde252a3ae8d489ef7268cf700029",
  "source": "pragma solidity ^0.5.0;\n\nimport \"./SafeMath.sol\";\nimport \"./Address.sol\";\nimport \"./IERC1155TokenReceiver.sol\";\nimport \"./IERC1155.sol\";\n\n// A sample implementation of core ERC1155 function.\ncontract ERC1155 is IERC1155, ERC165\n{\n    using SafeMath for uint256;\n    using Address for address;\n\n    bytes4 constant public ERC1155_RECEIVED       = 0xf23a6e61;\n    bytes4 constant public ERC1155_BATCH_RECEIVED = 0xbc197c81;\n\n    // id => (owner => balance)\n    mapping (uint256 => mapping(address => uint256)) internal balances;\n\n    // owner => (operator => approved)\n    mapping (address => mapping(address => bool)) internal operatorApproval;\n\n/////////////////////////////////////////// ERC165 //////////////////////////////////////////////\n\n    /*\n        bytes4(keccak256('supportsInterface(bytes4)'));\n    */\n    bytes4 constant private INTERFACE_SIGNATURE_ERC165 = 0x01ffc9a7;\n\n    /*\n        bytes4(keccak256(\"safeTransferFrom(address,address,uint256,uint256,bytes)\")) ^\n        bytes4(keccak256(\"safeBatchTransferFrom(address,address,uint256[],uint256[],bytes)\")) ^\n        bytes4(keccak256(\"balanceOf(address,uint256)\")) ^\n        bytes4(keccak256(\"balanceOfBatch(address[],uint256[])\")) ^\n        bytes4(keccak256(\"setApprovalForAll(address,bool)\")) ^\n        bytes4(keccak256(\"isApprovedForAll(address,address)\"));\n    */\n    bytes4 constant private INTERFACE_SIGNATURE_ERC1155 = 0xd9b67a26;\n\n    function supportsInterface(bytes4 _interfaceId)\n    public\n    view\n    returns (bool) {\n         if (_interfaceId == INTERFACE_SIGNATURE_ERC165 ||\n             _interfaceId == INTERFACE_SIGNATURE_ERC1155) {\n            return true;\n         }\n\n         return false;\n    }\n\n/////////////////////////////////////////// ERC1155 //////////////////////////////////////////////\n\n    /**\n        @notice Transfers value amount of an _id from the _from address to the _to addresses specified. Each parameter array should be the same length, with each index correlating.\n        @dev MUST emit TransferSingle event on success.\n        Caller must be approved to manage the _from account's tokens (see isApprovedForAll).\n        MUST Throw if `_to` is the zero address.\n        MUST Throw if `_id` is not a valid token ID.\n        MUST Throw on any other error.\n        When transfer is complete, this function MUST check if `_to` is a smart contract (code size > 0). If so, it MUST call `onERC1155Received` on `_to` and revert if the return value is not `bytes4(keccak256(\"onERC1155Received(address,address,uint256,uint256,bytes)\"))`.\n        @param _from    Source addresses\n        @param _to      Target addresses\n        @param _id      ID of the token type\n        @param _value   Transfer amount\n        @param _data    Additional data with no specified format, sent in call to `_to`\n    */\n    function safeTransferFrom(address _from, address _to, uint256 _id, uint256 _value, bytes calldata _data) external {\n\n        require(_to != address(0x0), \"_to must be non-zero.\");\n        require(_from == msg.sender || operatorApproval[_from][msg.sender] == true, \"Need operator approval for 3rd party transfers.\");\n\n        // SafeMath will throw with insuficient funds _from\n        // or if _id is not valid (balance will be 0)\n        balances[_id][_from] = balances[_id][_from].sub(_value);\n        balances[_id][_to]   = _value.add(balances[_id][_to]);\n\n        emit TransferSingle(msg.sender, _from, _to, _id, _value);\n\n        if (_to.isContract()) {\n            require(IERC1155TokenReceiver(_to).onERC1155Received(msg.sender, _from, _id, _value, _data) == ERC1155_RECEIVED, \"Receiver contract did not accept the transfer.\");\n        }\n    }\n\n    /**\n        @notice Send multiple types of Tokens from a 3rd party in one transfer (with safety call).\n        @dev MUST emit TransferBatch event on success.\n        Caller must be approved to manage the _from account's tokens (see isApprovedForAll).\n        MUST Throw if `_to` is the zero address.\n        MUST Throw if any of the `_ids` is not a valid token ID.\n        MUST Throw on any other error.\n        When transfer is complete, this function MUST check if `_to` is a smart contract (code size > 0). If so, it MUST call `onERC1155BatchReceived` on `_to` and revert if the return value is not `bytes4(keccak256(\"onERC1155BatchReceived(address,address,uint256[],uint256[],bytes)\"))`.\n        @param _from    Source address\n        @param _to      Target address\n        @param _ids     IDs of each token type\n        @param _values  Transfer amounts per token type\n        @param _data    Additional data with no specified format, sent in call to `_to`\n    */\n    function safeBatchTransferFrom(address _from, address _to, uint256[] calldata _ids, uint256[] calldata _values, bytes calldata _data) external {\n\n        // MUST Throw on errors\n        require(_to != address(0x0), \"destination address must be non-zero.\");\n        require(_ids.length == _values.length, \"_ids and _values array lenght must match.\");\n        require(_from == msg.sender || operatorApproval[_from][msg.sender] == true, \"Need operator approval for 3rd party transfers.\");\n\n        for (uint256 i = 0; i < _ids.length; ++i) {\n            uint256 id = _ids[i];\n            uint256 value = _values[i];\n\n            // SafeMath will throw with insuficient funds _from\n            // or if _id is not valid (balance will be 0)\n            balances[id][_from] = balances[id][_from].sub(value);\n            balances[id][_to]   = value.add(balances[id][_to]);\n        }\n\n        // MUST emit event\n        emit TransferBatch(msg.sender, _from, _to, _ids, _values);\n\n        // Now that the balances are updated,\n        // call onERC1155BatchReceived if the destination is a contract\n        if (_to.isContract()) {\n            require(IERC1155TokenReceiver(_to).onERC1155BatchReceived(msg.sender, _from, _ids, _values, _data) == ERC1155_BATCH_RECEIVED, \"Receiver contract did not accept the transfer.\");\n        }\n    }\n\n    /**\n        @notice Get the balance of an account's Tokens.\n        @param _owner  The address of the token holder\n        @param _id     ID of the Token\n        @return        The _owner's balance of the Token type requested\n     */\n    function balanceOf(address _owner, uint256 _id) external view returns (uint256) {\n        // The balance of any account can be calculated from the Transfer events history.\n        // However, since we need to keep the balances to validate transfer request,\n        // there is no extra cost to also privide a querry function.\n        return balances[_id][_owner];\n    }\n\n\n    /**\n        @notice Get the balance of multiple account/token pairs\n        @param _owners The addresses of the token holders\n        @param _ids    ID of the Tokens\n        @return        The _owner's balance of the Token types requested\n     */\n    function balanceOfBatch(address[] calldata _owners, uint256[] calldata _ids) external view returns (uint256[] memory) {\n\n        require(_owners.length == _ids.length);\n\n        uint256[] memory balances_ = new uint256[](_owners.length);\n\n        for (uint256 i = 0; i < _owners.length; ++i) {\n            balances_[i] = balances[_ids[i]][_owners[i]];\n        }\n\n        return balances_;\n    }\n\n    /**\n        @notice Enable or disable approval for a third party (\"operator\") to manage all of the caller's tokens.\n        @dev MUST emit the ApprovalForAll event on success.\n        @param _operator  Address to add to the set of authorized operators\n        @param _approved  True if the operator is approved, false to revoke approval\n    */\n    function setApprovalForAll(address _operator, bool _approved) external {\n        operatorApproval[msg.sender][_operator] = _approved;\n        emit ApprovalForAll(msg.sender, _operator, _approved);\n    }\n\n    /**\n        @notice Queries the approval status of an operator for a given owner.\n        @param _owner     The owner of the Tokens\n        @param _operator  Address of authorized operator\n        @return           True if the operator is approved, false if not\n    */\n    function isApprovedForAll(address _owner, address _operator) external view returns (bool) {\n        return operatorApproval[_owner][_operator];\n    }\n}\n",
  "sourcePath": "/home/samansh/Desktop/erc-1155/lib/ERC1155.sol",
  "compiler": {
    "name": "solc",
    "version": "0.5.0+commit.1d4f565a.Emscripten.clang"
  },
  "schemaVersion": "3.0.1",
  "updatedAt": "2019-02-08T11:13:59.596Z",
  "devdoc": {
    "methods": {
      "balanceOf(address,uint256)": {
        "params": {
          "_id": "ID of the Token",
          "_owner": "The address of the token holder"
        },
        "return": "The _owner's balance of the Token type requested"
      },
      "balanceOfBatch(address[],uint256[])": {
        "params": {
          "_ids": "ID of the Tokens",
          "_owners": "The addresses of the token holders"
        },
        "return": "The _owner's balance of the Token types requested"
      },
      "isApprovedForAll(address,address)": {
        "params": {
          "_operator": "Address of authorized operator",
          "_owner": "The owner of the Tokens"
        },
        "return": "True if the operator is approved, false if not"
      },
      "safeBatchTransferFrom(address,address,uint256[],uint256[],bytes)": {
        "details": "MUST emit TransferBatch event on success. Caller must be approved to manage the _from account's tokens (see isApprovedForAll). MUST Throw if `_to` is the zero address. MUST Throw if any of the `_ids` is not a valid token ID. MUST Throw on any other error. When transfer is complete, this function MUST check if `_to` is a smart contract (code size > 0). If so, it MUST call `onERC1155BatchReceived` on `_to` and revert if the return value is not `bytes4(keccak256(\"onERC1155BatchReceived(address,address,uint256[],uint256[],bytes)\"))`.",
        "params": {
          "_data": "Additional data with no specified format, sent in call to `_to`",
          "_from": "Source address",
          "_ids": "IDs of each token type",
          "_to": "Target address",
          "_values": "Transfer amounts per token type"
        }
      },
      "safeTransferFrom(address,address,uint256,uint256,bytes)": {
        "details": "MUST emit TransferSingle event on success. Caller must be approved to manage the _from account's tokens (see isApprovedForAll). MUST Throw if `_to` is the zero address. MUST Throw if `_id` is not a valid token ID. MUST Throw on any other error. When transfer is complete, this function MUST check if `_to` is a smart contract (code size > 0). If so, it MUST call `onERC1155Received` on `_to` and revert if the return value is not `bytes4(keccak256(\"onERC1155Received(address,address,uint256,uint256,bytes)\"))`.",
        "params": {
          "_data": "Additional data with no specified format, sent in call to `_to`",
          "_from": "Source addresses",
          "_id": "ID of the token type",
          "_to": "Target addresses",
          "_value": "Transfer amount"
        }
      },
      "setApprovalForAll(address,bool)": {
        "details": "MUST emit the ApprovalForAll event on success.",
        "params": {
          "_approved": "True if the operator is approved, false to revoke approval",
          "_operator": "Address to add to the set of authorized operators"
        }
      }
    }
  },
  "userdoc": {
    "methods": {
      "balanceOf(address,uint256)": {
        "notice": "Get the balance of an account's Tokens."
      },
      "balanceOfBatch(address[],uint256[])": {
        "notice": "Get the balance of multiple account/token pairs"
      },
      "isApprovedForAll(address,address)": {
        "notice": "Queries the approval status of an operator for a given owner."
      },
      "safeBatchTransferFrom(address,address,uint256[],uint256[],bytes)": {
        "notice": "Send multiple types of Tokens from a 3rd party in one transfer (with safety call)."
      },
      "safeTransferFrom(address,address,uint256,uint256,bytes)": {
        "notice": "Transfers value amount of an _id from the _from address to the _to addresses specified. Each parameter array should be the same length, with each index correlating."
      },
      "setApprovalForAll(address,bool)": {
        "notice": "Enable or disable approval for a third party (\"operator\") to manage all of the caller's tokens."
      }
    }
  }
}