{
  "contractName": "Marketplace",
  "abi": [
    {
      "inputs": [
        {
          "name": "token",
          "type": "address"
        }
      ],
      "payable": false,
      "stateMutability": "nonpayable",
      "type": "constructor",
      "signature": "constructor"
    },
    {
      "payable": true,
      "stateMutability": "payable",
      "type": "fallback"
    },
    {
      "constant": false,
      "inputs": [
        {
          "name": "tokenID",
          "type": "uint256"
        }
      ],
      "name": "buyToken",
      "outputs": [],
      "payable": true,
      "stateMutability": "payable",
      "type": "function",
      "signature": "0x2d296bf1"
    },
    {
      "constant": false,
      "inputs": [
        {
          "name": "_operator",
          "type": "address"
        },
        {
          "name": "_from",
          "type": "address"
        },
        {
          "name": "_id",
          "type": "uint256"
        },
        {
          "name": "_value",
          "type": "uint256"
        },
        {
          "name": "_data",
          "type": "bytes"
        }
      ],
      "name": "onERC1155Received",
      "outputs": [
        {
          "name": "",
          "type": "bytes4"
        }
      ],
      "payable": false,
      "stateMutability": "nonpayable",
      "type": "function",
      "signature": "0xf23a6e61"
    }
  ],
  "bytecode": "0x608060405234801561001057600080fd5b506040516020806104eb8339810180604052602081101561003057600080fd5b8101908080519060200190929190505050600073ffffffffffffffffffffffffffffffffffffffff168173ffffffffffffffffffffffffffffffffffffffff161415151561007d57600080fd5b806000806101000a81548173ffffffffffffffffffffffffffffffffffffffff021916908373ffffffffffffffffffffffffffffffffffffffff160217905550655af3107a400060016000600181526020019081526020016000208190555065b5e620f48000600160006002815260200190815260200160002081905550660110d9316ec000600160006003815260200190815260200160002081905550506103c08061012b6000396000f3fe60806040526004361061004c576000357c0100000000000000000000000000000000000000000000000000000000900463ffffffff1680632d296bf114610058578063f23a6e6114610086575b61005660006101b2565b005b6100846004803603602081101561006e57600080fd5b81019080803590602001909291905050506101b2565b005b34801561009257600080fd5b5061015e600480360360a08110156100a957600080fd5b81019080803573ffffffffffffffffffffffffffffffffffffffff169060200190929190803573ffffffffffffffffffffffffffffffffffffffff16906020019092919080359060200190929190803590602001909291908035906020019064010000000081111561011a57600080fd5b82018360208201111561012c57600080fd5b8035906020019184600183028401116401000000008311171561014e57600080fd5b909192939192939050505061032a565b60405180827bffffffffffffffffffffffffffffffffffffffffffffffffffffffff19167bffffffffffffffffffffffffffffffffffffffffffffffffffffffff1916815260200191505060405180910390f35b6000349050600160008381526020019081526020016000205481101580156101ee57506000600160008481526020019081526020016000205414155b15156101f957600080fd5b6000809054906101000a900473ffffffffffffffffffffffffffffffffffffffff1673ffffffffffffffffffffffffffffffffffffffff1663f242432a30338560016040518563ffffffff167c0100000000000000000000000000000000000000000000000000000000028152600401808573ffffffffffffffffffffffffffffffffffffffff1673ffffffffffffffffffffffffffffffffffffffff1681526020018473ffffffffffffffffffffffffffffffffffffffff1673ffffffffffffffffffffffffffffffffffffffff1681526020018381526020018281526020018060200182810382526000815260200160200195505050505050600060405180830381600087803b15801561030e57600080fd5b505af1158015610322573d6000803e3d6000fd5b505050505050565b600060405180807f6f6e45524331313535526563656976656428616464726573732c61646472657381526020017f732c75696e743235362c75696e743235362c6279746573290000000000000000815250603801905060405180910390209050969550505050505056fea165627a7a72305820cd9870dccb025b8fd08a16740ccb18ffc8325321b643f57dfc835fa3d36d9de10029",
  "source": "pragma solidity ^0.5.0;\n\nimport '../lib/IERC1155.sol';\n\ncontract Marketplace {\n    IERC1155 private _token;\n\n    mapping (uint256 => uint256) price; //mapping from id of the token to its price\n\n    constructor (IERC1155 token) public {\n        require(address(token) != address(0));\n        _token = token;\n\n        price[1] = 100000000000000;\n        price[2] = 200000000000000;\n        price[3] = 300000000000000;        \n    }\n\n    function () external payable {\n        buyToken(0);\n    }\n\n    function buyToken(uint256 tokenID) public payable {\n        uint256 weiAmount = msg.value;\n        require(weiAmount >= price[tokenID] && price[tokenID] != 0);\n\n        _token.safeTransferFrom(address(this), msg.sender, tokenID, 1, \"\");\n    }\n\n    function onERC1155Received(address _operator, address _from, uint256 _id, uint256 _value, bytes calldata _data) external returns(bytes4){\n        return bytes4(keccak256(\"onERC1155Received(address,address,uint256,uint256,bytes)\"));\n    }\n}",
  "sourcePath": "/home/samansh/Desktop/erc-1155/contracts/marketplace.sol",
  "compiler": {
    "name": "solc",
    "version": "0.5.0+commit.1d4f565a.Emscripten.clang"
  },
  "schemaVersion": "3.0.1",
  "updatedAt": "2019-02-15T16:02:51.035Z",
  "devdoc": {
    "methods": {}
  },
  "userdoc": {
    "methods": {}
  }
}